:020000041000EA
:10000000000002284D210010F9240010F5230010F3
:1000100000000000000000000000000000000000E0
:10002000000000000000000000000000612400103B
:100030000000000000000000FD2400100125001059
:10004000CD1B0010F11B0010151C0010391C0010F6
:100050005D1C0010811C0010A51C0010C91C0010A4
:1000600005250010092500100D2500101125001090
:1000700015250010192500101D2500102125001040
:1000800000B5012027490A6852080240002A01D021
:10009000022001E00968084000BD27480168080007
:1000A000C007C00F704700B5C21E022A01D301204D
:1000B00002E0C01E0860002000BD1CB5FF24694698
:1000C000FFF7F1FFC0B2002802D02000C0B207E065
:1000D0003C480099890041580800C007C00FC0B2D1
:1000E00016BD00B5002801D0032801D3012002E08D
:1000F000401E0860002000BD1CB5FF246946FFF7C4
:10010000F0FFC0B2002802D02000C0B208E03148A1
:10011000009909014018C1680800C007C00FC0B2AB
:1001200016BD0000241526402B48006881080800F1
:10013000C007C00F704700004015264038B50400C6
:100140002000C0B208280DD3244D182224492800CD
:1001500000F0B0FB0020E875224823490860002029
:1001600000F008FC21482100C9B2890041580A006A
:10017000D205D20F002A05D0E4B2A10040580007F2
:10018000000F00E0FF2032BD38B505002800C0B2E6
:1001900008280ED3114C18221149200000F08AFBC8
:1001A0000020E075892000010F490860002000F060
:1001B000E1FB0E48EDB2A900405800098007800F0E
:1001C00032BD0000401626400C480068000AC0B24C
:1001D000704700000019264010002740AC0F00288F
:1001E000182200105B08000014100028401226405E
:1001F00003480068000AC0B2704700001010204099
:100200000810204038B50400072C0ED3124D1822D8
:100210001249280000F04EFB0020E875CE20400077
:100220000F490860002000F0A5FB0A48A1004058D3
:100230004007400F010009B2042907D10448A1007A
:100240004058C106C90E80204000084300B232BDAC
:100250000001264000122640AC0F00286C2200103E
:10026000141000281E4909688A03920B0260090EC7
:100270000A00D207D20FC271174909680A00D204D6
:10028000D20C82800A00120CD2B20281090CC9B2CF
:100290004181264909680F220B00134003730B09A3
:1002A0001A4042730A0AD204D20CC281090F89078C
:1002B000890F0174094909680A0A5207520F8271AD
:1002C0000A00120CD205D20D4282890F0A00D20711
:1002D000D20F027570470000341526403C152640A9
:1002E000301526401CB50C006946FFF7DCFE010006
:1002F000C9B2002901D0C0B217E00D4800998900A9
:1003000040584106490E21601F21020A0A406260DE
:10031000020C1140A160010F8907890F6173C00EA3
:100320000100C907C90F2173002016BD38152640EA
:10033000001626401CB50C006946FFF7D2FE0100EE
:10034000C9B2002901D0C0B233E01A4800990901AE
:100350004158CAB222601F220B0A134063600B0C83
:100360001A40A260090F8907890F217300990901BA
:1003700041184A68D10F61730721130F0B40002BFE
:1003800001D0012300E00023A3731202120A2261AC
:10039000009A120180188068C20F2275020E1300A5
:1003A000DB07DB0F63750200A275000C0140E175ED
:1003B000002016BD0019264080B50100864818228D
:1003C00000F0FCFA012085490870002002BD000001
:1003D00000B583490968C90F002907D07F4909780A
:1003E000002907D100210160032000BD0021016028
:1003F0000320FAE77849096801600020F5E700006A
:1004000010B50400FFF73CFE002803D10020206057
:1004100003200BE071480078002804D06E48806803
:100420002060002002E000202060032010BD00B505
:100430006A490978002904D06749496801600020A9
:1004400002E000210160032000BD000000B5654905
:100450000968C90F002907D060490978002907D128
:1004600000210160032000BD002101600320FAE7A4
:100470005949C96801600020F5E7000000B55A49F4
:100480000968C90F002907D054490978002907D104
:1004900000210160032000BD002101600320FAE774
:1004A0004D49096901600020F5E7000010B504001E
:1004B000FFF73AFE002803D10020206003200BE064
:1004C00046480078002804D0434840692060002056
:1004D00002E000202060032010BD000010B50C00D9
:1004E000C0B2FFF78FFE00280CD0401E0ED0401E79
:1004F00010D087214900401A10D0401E12D0C01ED3
:1005000014D017E02000FFF763FF16E02000FFF78C
:100510008EFF12E02000FFF773FF0EE02000FFF7D0
:1005200095FF0AE02000FFF7C1FF06E02000FFF77B
:10053000A5FF02E000202060032010BD80B501006F
:100540000020FFF7CBFF02BD80B50322D2B282426A
:1005500003D200200860012003E0401CC0B2FFF776
:10056000BDFF02BD30B587B004006846FFF7E6FF67
:100570000100C9B2002903D000212160C0B228E0E7
:1005800001A8FFF76FFE01AD287C022803D1009877
:10059000206000201DE07B480068C00F002808D0C4
:1005A000FFF77BFDC0B2002807D1002020600320A8
:1005B0000FE00098206000200BE00098019948436C
:1005C000A98800F022FAE979491C00F01EFA20609F
:1005D000002007B030BD0000940F00282C10002828
:1005E00018152640081526400C152640F0B58BB08E
:1005F00004000D0069462000C0B2FFF7A5FF01000E
:10060000C9B2002903D000212960C0B2B7E02000A0
:10061000C0B2022848D307A92000C0B2401CFFF78F
:1006200061FEC0B200280DD0824E182282493000EF
:1006300000F040F90020F0758048814908600020F2
:1006400000F098F97F482100C9B2890040180838A5
:100650000068C00F002807D007A8407B022807D1F8
:100660000098286000208AE000982860002086E03A
:10067000E4B2641C2000FFF720FD0100C9B200298C
:1006800002D0C0B2FF2803D100202860032076E00A
:10069000009807994843089900F0B7F9099900F0C4
:1006A000B4F9286000206AE001A92000C0B2401C13
:1006B000FFF740FEC0B200280DD05E4E18225E4902
:1006C000300000F0F7F80020F0755F485C490860E2
:1006D000002000F04FF95D482100C9B209014058DF
:1006E000C00F002807D001AE307B022807D1009848
:1006F0002860002043E00098286000203FE0E4B23A
:10070000641C2000FFF7F8FC0100C9B2002902D0E8
:10071000C0B2FF2803D10020286003202FE0707BA7
:10072000012821D100980021019E00273F06320AAE
:1007300017433606059A002392197B4100F0BCF955
:1007400006000F0002980021039A002300F0B4F97C
:1007500002000B003000390000F0C7F9000E0A0259
:100760001043090E286009E0009801994843029956
:1007700000F04BF9039900F048F9286000200BB015
:10078000F0BD00003015264010B50323421E0400C2
:10079000E4B2002C03D10800FFF7E4FE0CE01400E3
:1007A000DBB2E4B2A34204D31000C0B2FFF71EFFD5
:1007B00002E0C0B2FFF792FE10BD38B504000D0094
:1007C0002000C0B2FFF7BAFC0100C9B2FF2904D172
:1007D0002800FFF7FDFDC0B21BE06946C0B2FFF77D
:1007E000D3FF0100C9B2002903D000212960C0B2A3
:1007F0000FE02000C0B2FFF7C7FCC0B2002805D050
:1008000002280BD006D303280CD00FE000982860F4
:10081000002032BD009840082860F9E70098800861
:100820002860F5E70098C0082860F1E700202860FC
:100830000320EEE7AC0F00286C22001063090000D3
:1008400014100028001626407F09000000192640D9
:100850001CB5040069460020FFF7AFFF0100C9B2D4
:10086000002903D000212160C0B208E0FFF7ACFCF2
:1008700001000098491C00F0C8F82060002016BD57
:100880001CB504006846FFF7E3FF0100C9B2002968
:1008900001D0C0B208E0FFF7ABFC01000098491C92
:1008A00000F0B3F82060002016BD80B5FFF7E8FF28
:1008B00002BD000071B58B0709D0521E28D30B78FA
:1008C0000370401C1B421FD0491C8B07F5D1121F1F
:1008D0003ED3274CE50140C9331BB3432B4209D11A
:1008E000830716D140C0121F32D340C9331BB34314
:1008F0002B42F7D0121DFF231E4205D00670401C6C
:10090000360A521E1E42F9D11100002200F02CF9C5
:1009100071BDDB4216D0401E4670360A4680360C4A
:100920000671001D121F06D340C9331BB3432B426F
:10093000F2D0401CDEE7401C0AE040C9331BB34341
:100940002B42D7D10680360C4680001D121FF4D2F0
:10095000121D0BD00B780370521E07D0401C491C8F
:100960001B42F7D10370401C521EFBD171BD000029
:100970000101010100B501BEFEE780B50C4A0D4939
:100980000B68934210D00A6002684A6042688A602D
:100990008268CA60C2680A6102694A6142698A6102
:1009A0008269CA61C069086200F001F901BD0000F6
:1009B000F3F2F1F0700F00287047704770B4103AEE
:1009C00003D378C9103A78C0FBD2530701D318C9B2
:1009D00018C001D508C908C0D20704D30B8803800A
:1009E000891C801C002A01D50B78037070BC7047ED
:1009F0008B0701D18307E1D0124205D00B78491C47
:100A00000370401C521EF9D170470022030A8B422A
:100A10000BD203098B4219D243088B422ED2411AC2
:100A200000D20146524110467047FF2209023FD0D2
:100A300012068B4205D3121209028B4201D3121205
:100A4000090203098B4219D300E0090AC3098B424A
:100A500001D3CB01C01A524183098B4201D38B01D0
:100A6000C01A524143098B4201D34B01C01A524173
:100A700003098B4201D30B01C01A5241C3088B42B8
:100A800001D3CB00C01A524183088B4201D38B00A3
:100A9000C01A524143088B4201D34B00C01A524145
:100AA000884200D3401A5241CFD2014610467047C7
:100AB00008B500F07FF808BD30B4434351435D18DA
:100AC000010C0C00130C5C432D1980B2434392B20D
:100AD00051430024C918644124040B04090C09196A
:100AE0005043C018694130BC704712422DD0994222
:100AF00031D970B500251B4209D00C00002112E04D
:100B00001100FFF782FF0A000021002370BD094297
:100B1000F6D00024012649186441944200D3A41A57
:100B20007641F8D33100012601E0764109D2001860
:100B300064416D41A41A9D41F7D2A4185D41B619D4
:100B4000F5D3300022002B0070BD1B42CFD108B579
:100B500000F032F808BD01D19042CAD202000B0069
:100B60000021002070470000094205D0830707D00C
:100B70000270401C491EF9D1704700000022FFE7B7
:100B80001300103906D330B41400150010393CC0DE
:100B9000FCD230BC490700D30CC000D504C089008A
:100BA00002D30280801C002900D50270704700B576
:100BB000FEE700007047000070470000F0B585B008
:100BC00000F060FB1A2000F075FCDF490124086882
:100BD0000322904320430860DC480A6802400A6010
:100BE000DB490A6803239A4322430A600A680240E9
:100BF0000A60D8490A6803239A4322430A600A68B4
:100C000010400860D44801680F22914321430160DD
:100C1000D2480168072291430160D1480168072248
:100C2000914304220A4302600168F0229143C022EA
:100C30000A4302600168C02292000A430260016810
:100C4000C02212010A4302600168C64A0A4080219C
:100C5000490111430160C44880252D0601682943DC
:100C60000160C248016821400029FAD001684908A2
:100C700021400029FAD0BE48BE4E016831400160D3
:100C8000BD4801683140802252000A430260BB48DF
:100C900001683140802252000A430260B84801686E
:100CA00031400160B74801680722914302220A439C
:100CB0000260B5480168490049080160B34801680D
:100CC000890A890229220A4302600168B04A0A405F
:100CD00002600168802252040A4302600168AD4A42
:100CE0000A400260016829430160AB480168AB4AD1
:100CF0000A408021C900114301600168FF2291432D
:100D00007D220A4302600168A54A0A4080218902C7
:100D100011430160802189040268A24B13400B43F8
:100D20000360A14F02683A40026002682A430260F1
:100D30009E48026807239A430223134303609C4A98
:100D40001068030E1B069B481843106013689A48EE
:100D5000184080235B05034313601068284310602C
:100D600096480268520052080260954A13688B4800
:100D7000184080239B00034313601068FF239843AF
:100D80006223034313601368854818408023DB0205
:100D900003431360136883481840014311601068CF
:100DA00038401060106828431060864801680722A8
:100DB000914302220A430260A94801687F229143BD
:100DC00028220A430260026874491140802292007E
:100DD0000A430260026872491140802292020A436B
:100DE000026001686F4A0A4002609E4902680A4038
:100DF000026002683A40026002682A4302609A4830
:100E0000026807239A43022313430360974A10683A
:100E10007F2398431E230343136013685F481840E1
:100E200080239B000343136013685D481840C02370
:100E30009B020343136013685A48184010601068FF
:100E40000140116010680740176010682843106067
:100E50009B48006820400028FAD09A48006820404B
:100E60000028FAD09848006820400028FAD0974817
:100E7000006820400028FAD0954801680722914375
:100E8000016001A893491022FFF798FD002138E086
:100E9000914A080040B280001018009001AB009801
:100EA00000680F27B8430F007FB27F00DF197F78FB
:100EB0003F073F0F074300980760080040B28000DB
:100EC00010180090009800683027B8430F007FB2D8
:100ED0007F00DB5D1F0130233B400343009803602C
:100EE000080040B280001018036880277F001F436D
:100EF0000760080040B28000101802682A430260B0
:100F0000491C080040B20828C2D39D4908683040F7
:100F10000860F820C0430A6802400A6099490A68DC
:100F200016400E600A681040086000F098F9964874
:100F300001680D43056001680C43046000F084F90A
:100F400000F042F805B0F0BDC4132040FFFCFFFFE5
:100F5000001320408013204000002440001526404C
:100F600044152640FF8FFFFF1C1526402415264000
:100F700010102040FF00FFFF081020400C10204000
:100F80002003204004122640041926400819264058
:100F9000FFFFF8FFFFFFFFEF00192640FFE0FFFF14
:100FA000FFFFE0FFFFFFFFF9FFFFFFCF0812264022
:100FB00014192640F1D24D00FFFFFF8F181926406B
:100FC000101926400C12264038B586B068466F4985
:100FD0001822FFF7F3FC6846FFF7EEF9C0B20028CD
:100FE0000ED06B4C18226B492000FFF763FC0020E9
:100FF000E075FF208C30684908600020FFF7BAFCDC
:10100000664D2800FFF751FCC0B200280ED0604C9E
:10101000182260492000FFF74DFC0020E075FF20FA
:101020008E305D4908600020FFF7A4FC744C2868EE
:1010300020602068734940187349FFF7E6FC734944
:101040000860734D206873494018FA218900FFF742
:10105000DCFC28602868C0036F49086007B030BD19
:1010600000162640FFFFFFF7101226400416264008
:10107000F8B50400002637002000C0B202280DDBBE
:10108000434D182243492800FFF714FCEE75FF205A
:10109000A430414908600020FFF76CFC2000C0B27A
:1010A000002804D15D4800688707BF0F06E0E4B25E
:1010B000012C03D15A4800688707BF0F3800F2BDE2
:1010C0000C1926401C19264040162640441626407E
:1010D00014122640B024001040122640F8B5040037
:1010E0000E002000C0B202280EDB294D182229492B
:1010F0002800FFF7DFFB0020E875FF20C8302649F5
:1011000008600020FFF736FC00F0EAF90500200037
:10111000C0B2FFF7ADFF032803D12000C0B200F03A
:101120003FF840480168802212060A43026020000E
:10113000C0B200280FD13C480660009881B23B48FD
:1011400008430321014335480160394801681022F2
:101150009143016010E0E4B2012C0DD135480660E6
:10116000B9B232480843032101432D480160324897
:101170000168102291430160280000F0B5F9F1BD2B
:10118000080020400804204008152640982400103C
:10119000AC0F0028B82100101410002818100028E7
:1011A000F8B504002000C0B202280EDB234D18223F
:1011B00023492800FFF77EFB0020E8759620800079
:1011C000204908600020FFF7D5FB2000C0B20028AE
:1011D00009D1B9B2154808430321884301210143CD
:1011E0000E4801600BE0E4B2012C08D1B1B20F4807
:1011F0000843032188430121014309480160F1BDEF
:101200001C1000283F420F0040420F00241000280D
:1012100020100028E70300002810002800122040BA
:101220001012204044122640000220400000FA051F
:101230000C002040000620400C042040AC0F002889
:10124000B82100101410002880B500F059F9134996
:101250000A68032313430B6000F056F901BD80B503
:1012600000F04EF90D490A6803239A430123134302
:101270000B600A6803239A43022313430B6000F0B8
:1012800043F901BD80B5FFF7EAFF05480168490051
:1012900049080160FFF7D8FF01BD000040C02640AB
:1012A00000C02640F3B595B0170000210D000800DE
:1012B000684601801C00A4B2A408200080B28021EE
:1012C0008900884203D30125684604807E4C1C9E19
:1012D00000F029F9002800D099E06846877016A828
:1012E000077801A81021FFF749FC019802218843E3
:1012F0003100C9B249000222114001430191019815
:1013000004218843FFB2B900042211400143019136
:1013100001980821884369468978C900082211404C
:1013200001430191019810218843019001982021E7
:1013300088430190019840218843019001988021C1
:1013400001430191614F0198384015A909780902BC
:10135000F82252010A400243019201985C4901407F
:10136000019101980002000AA82149050143019159
:1013700011A81021FFF702FC1198800A8002A4B284
:10138000A105890D0143119152480068002806D13A
:1013900001980740D02040013843019007E0002821
:1013A00005D0019807408020400138430190002279
:1013B00011A901A800F02BF9EDB2002D03D0684669
:1013C000008800F0A5F809A81021FFF7D7FB0998BD
:1013D00002218843F6B271000222114001430991B3
:1013E00009983D490140099109983C4901408020F4
:1013F00040020843099009980002000A8821490523
:1014000001430991002109A800F0AAF850E000F07A
:1014100095F80128FBD000F08BF80128F7D10DA832
:101420001021FFF7ABFB0DA80078FD2101400DA8AE
:1014300001700DA800780C2101430DA801700D98D2
:101440000002000AB021490501430D9100210DA8B9
:1014500000F086F800F06CF8002829D1EDB2002DDC
:1014600003D06846008800F053F805A81021FFF764
:1014700085FB059802218843F6B2710002221140D3
:1014800001430591059814490140059105981349B8
:101490000140802040020843059005980002000AA0
:1014A0008821490501430591002105A800F058F85D
:1014B00017B0F0BD80B5002100910023002200216B
:1014C000C0B2FFF7EFFE01BDFF010000FFE0FFFF2C
:1014D000FF1FFFFF30070017FF00FFFFFFFF00FFA8
:1014E000EFF3108072B6704780F3108870470000E9
:1014F000801C800803D0401C801EFCD100BF7047B8
:10150000EFF3108072B6704780F3108870470000C8
:101510000D490A680D4B134080B200050C4A024089
:101520001A430A60704708480068C00FC0B270478D
:10153000084801680800C007C00F704705480068E8
:10154000C00FC0B27047000028102640FFFF0FC038
:101550000000F03F2C102640C069C00FC0B2704799
:10156000F8B502000E00002A01D105204EE00F2040
:1015700069490B681B0A0340002B01D1002007E0DA
:101580000968090A08400E2801D1012000E0022064
:10159000624940010F18624C624D28001100102270
:1015A000FFF726FA286801218843286010212800C7
:1015B000FFF703FA5C4B2A000121380000F0CFF856
:1015C000002804D0012021E0641E002C15D0380032
:1015D000FFF7C2FF0028F7D1002E08D01021280005
:1015E000FFF7EAF9300029001022FFF701FA00F0B6
:1015F00079F8012803D1032008E0022006E000F07A
:1016000071F8002801D1002000E00420F2BDFEB5F1
:1016100003001600002B03D001910198002801D18E
:1016200005205DE00F203C490A68120A0240002AAA
:1016300001D1002007E00968090A08400E2801D1FD
:10164000012000E002203549400108180090374C85
:10165000344D280019001022FFF7CAF9344F380022
:1016600001991022FFF7C4F92868012188432860F6
:10167000386801218843386010212800FFF79DF960
:1016800010213800FFF799F93B002A00012100984A
:1016900000F065F8002804D0012021E0641E002C31
:1016A00015D00098FFF758FF0028F7D1002E08D07A
:1016B00010212800FFF780F9300029001022FFF7E1
:1016C00097F900F00FF8012803D1032008E0022069
:1016D00006E000F007F8002801D1002000E0042017
:1016E000FEBD000010B50F4C10212000FFF764F97B
:1016F0002068000F0007A0210906884201D10020C0
:1017000009E02068000F0007F0210906884201D196
:10171000012000E0022010BD000020400000224017
:10172000FFFFFF0FE00F002810100028FFFFFF0051
:1017300000100028174A1268120C120489B21143D3
:1017400081607047C16070470161704700B50068F3
:10175000C00F002801D1104800E0002000BDF8B5FE
:1017600007000C0015001E003800FFF7EFFF0028EF
:101770000DD129003800FFF7E5FF31003800FFF7F1
:10178000E3FF21003800FFF7D5FF002000E002480A
:10179000F2BD0000F424001001008A0000B5010031
:1017A00009B2002905D40121C006C00E81408F482E
:1017B000016000BDF0B5020012B2002A18D4182250
:1017C0008B4B040024B2A408A4001C59FF2506007A
:1017D000F6001640B540AC438901C9B20500ED00E2
:1017E0002A409140214300B28008800019501CE03B
:1017F0000F22804C182503001BB21340083B9B08A6
:101800009B00060036B23240083A92089200A25875
:10181000FF260700FF002F40BE40B2438901C9B236
:10182000C0000540A9401143E150F0BD80B500F073
:1018300012F87148714902680A40026070480268F3
:101840000A4002606F4802681140016000F092F89F
:1018500000F0A9F801BDFEB568466B490CC90CC083
:1018600008390838002630000AE06A460300DBB277
:10187000DB00D2185268521C114000290ED1401CC6
:101880000100C9B200290AD107216A460300DBB270
:10189000DB00D2580A40002AE7D0FEE7FEE75B4CA7
:1018A000072021680140002900D0FEE7584F396821
:1018B000491C0840002800D0FEE7350024E06846B7
:1018C0002900C9B2C9004018416868462A00D2B24E
:1018D000D200805800F044F815E030000028EED027
:1018E0002168491E68462A00D2B2D200805800F012
:1018F00037F868462900C9B2C900401841683868FD
:10190000401C00F02DF86D1C2800C0B2002826D124
:1019100068462900C9B2C9004058002814D0206880
:1019200069462A00D2B2D200895888420AD3684652
:101930002900C9B2C900401840682168884201D313
:101940000120CBE73000C9E768462900C9B2C900C9
:101950004018406821688842BFD30120BEE7F7BD28
:1019600080B50022002302E00CC00838083088420D
:10197000FAD301BD30B5274880082749274A0023FC
:1019800008E01C00E4B2A40014591D00EDB2AD0043
:101990004C515B1C1C000500E4B2EDB2AC42F0D32C
:1019A0001F48016030BD10B5102311211A480022D4
:1019B0001C00E4B2A4001459DBB29B00C4500B001D
:1019C000DBB29B00D258C9B28900425001210020ED
:1019D000FFF7F0FE00210120FFF7ECFE0020FFF7EB
:1019E000DDFE0120FFF7DAFE10BD000000E100E09F
:1019F00000E400E01CED00E000132040FFFFF7FFD3
:101A000080132040A0132040CC240010B0210010EF
:101A1000B421001080000000001100280000001018
:101A200008ED00E070B55F4BC018C00900015E4BC7
:101A3000C31804290CD21F251C68CE002800B04012
:101A40008443D2B21540C800854025431D600CE098
:101A5000FC311F255C68CE002800B0408443D2B220
:101A60001540C800854025435D6070BD00B5002A63
:101A700003D101228A40426002E001228A40826052
:101A800000BD30B403008C000F25596C2800A04025
:101A900081431540A5400D435D6430BC704730B4B0
:101AA000030001259C6C28008840844315408D402C
:101AB00025439D6430BC704730B403000125DC6CC5
:101AC00028008840844315408D402543DD6430BCA8
:101AD000704730B403004C0010340325D96C280043
:101AE000A04081431540A5400D43DD6430BC7047E4
:101AF000426901228A4042614069704730B4030064
:101B000001259C6928008840844315408D40254369
:101B10009D6130BC704730B403004C000325196C44
:101B20002800A04081431540A5400D431D6430BCF2
:101B30007047F8B504000025002C30D01600002EA8
:101B40002DD00F00326839002000FFF78FFF327A66
:101B500039002000FFF766FF726939002000FFF7A7
:101B60009EFFB26939002000FFF7A6FFF269390035
:101B70002000FFF7AEFF726839002000FFF781FFF9
:101B8000F26839002000FFF7C6FF39002000FFF798
:101B9000AFFF326939002000FFF7B0FF00E0034DCE
:101BA0002800F2BD0000CFBF0000304001005A0005
:101BB00000B5010009B2002905D40121C006C00EFC
:101BC00081404A48016000BD00B5FEE780B5484845
:101BD000006848480068C10F002905D046498005C3
:101BE000800D8000085880470020FFF7E1FF01BD0D
:101BF00080B54248006842480068C10F002905D0FE
:101C00003D498005800D8000085880470120FFF77E
:101C1000CFFF01BD80B53B4800683B480068C10F5D
:101C2000002905D034498005800D80000858804780
:101C30000220FFF7BDFF01BD80B53448006834487D
:101C40000068C10F002905D02B498005800D800058
:101C5000085880470320FFF7ABFF01BD80B52D4832
:101C600000682D480068C10F002905D02249800571
:101C7000800D8000085880470420FFF799FF01BDC0
:101C800080B52648006826480068C10F002905D0A5
:101C900019498005800D8000085880470520FFF70E
:101CA00087FF01BD80B51F4800681F480068C10F4D
:101CB000002905D010498005800D80000858804714
:101CC0000620FFF775FF01BD80B518480068184869
:101CD0000068C10F002905D007498005800D8000EC
:101CE000085880470720FFF763FF01BD80E200E04E
:101CF000D42400100011204000080028D82400102F
:101D000004112040DC24001008112040E0240010C1
:101D10000C112040E424001010112040E824001091
:101D200014112040EC24001018112040F024001061
:101D30001C11204080B50121542000F0B7F801218A
:101D4000832000F0B3F801219A20400000F0AEF8A3
:101D50000121A020400000F0A9F80121FF2042301D
:101D600000F0A4F801BD80B5C0B2052836D05428D3
:101D700002D0832819D07FE00800C0B2002804D127
:101D80000021542000F0ECF80EE00800C0B2012859
:101D900004D10121542000F0E3F805E0C9B2022982
:101DA00002D1542000F0F2F866E00800C0B200282A
:101DB00004D10021832000F0D3F80EE00800C0B267
:101DC000012804D10121832000F0CAF805E0C9B23E
:101DD000022902D1832000F0D9F84DE00800C0B2FA
:101DE000002817D10021542000F0BAF800218320E8
:101DF00000F0B6F800219A20400000F0B1F8002170
:101E0000A020400000F0ACF80021FF20423000F09C
:101E1000A7F830E00800C0B2012817D101215420F2
:101E200000F09EF80121832000F09AF801219A2009
:101E3000400000F095F80121A020400000F090F84B
:101E40000121FF20423000F08BF814E0C9B20229D2
:101E500011D1542000F09AF8832000F097F89A20CE
:101E6000400000F093F8A020400000F08FF8FF2021
:101E7000423000F08BF8FFE701BD80B5FFF75AFF55
:101E800002215420FFF76FFFFA20400000F096F87F
:101E9000F6E7000001228A408260704701228A40F2
:101EA0004260704701228A40C2607047F0B58DB031
:101EB0000C003E49020012B21211D2B292008D58AB
:101EC0000F2600B230400700684639493422FEF739
:101ED00075FDE4B2002C14D0022C18D014D3042CBD
:101EE0001BD017D3062C1ED01AD3082C21D01DD3FB
:101EF0000A2C24D020D30C2C27D023D30D2C27D070
:101F000027E00020019024E00220019021E003203E
:101F100001901EE0042001901BE00520019018E0D4
:101F20000620019015E00720019012E008200190A2
:101F30000FE00A2001900CE00B20019009E00C203A
:101F4000019006E00D20019003E00E20019000E0DA
:101F500001966A4639002800FFF7EBFD0DB0F0BD91
:101F600080B502000B001148110009B20911C9B275
:101F70008900405812B21107090FDBB2002B02D1C1
:101F8000FFF78CFF01E0FFF785FF01BD80B5010081
:101F900006480A0012B21211D2B29200805809B259
:101FA0000907090FFFF77EFF01BD0000EC0E0028B6
:101FB0005023001080B500F04FF801BD10B50400AB
:101FC00002E00448FFF7F6FF2000441E80B200281C
:101FD000F7D110BDE7030000F8B504000D00334F42
:101FE000387800280ED02D4E18222D493000FEF7EB
:101FF00061FC0020F075CF2040002A4908600020D5
:10200000FEF7B8FC2000290001223A708022520419
:10201000002399420AD301D8904207D3244A0400EE
:102020000D0024A003C80019694102E0020000204D
:1020300000211D4B00241C60204D2A60214A1460A1
:1020400005221A601A68D203FCD51C600029DDD174
:102050000028DBD13C70F1BD70B50500184E30682A
:1020600000280ED10D4C18220D492000FEF722FC4D
:102070000020E075E52040000A4908600020FEF7D6
:1020800079FC2C0030681049FEF7BFFC00212200CB
:102090000023FEF711FDFFF79FFF70BDAC0F002876
:1020A000C02200101410002810E000E02D100028BD
:1020B000FFFFFF00010000FFFFFFFFFF14E000E053
:1020C0001810002818E000E040420F00F1B4016849
:1020D0004118436858080A1800988068DB0701D542
:1020E0004B46C01891422DD00D78491C032403267D
:1020F0002E4002D10E78F61C491C2B090F2B07D15C
:102100000B780F33491C03E00F78491C0770401C03
:10211000761EF9D1002BE5D00E78491CAD082C4075
:10212000032C01D10C78491C24023419654244194E
:102130000025AE1E9E42D5D02678641C0670401C39
:102140006D1CF6E700980C30F2BC704772B6104870
:1021500010490860BFF34F8F0120C0040E490A6880
:1021600002430A600D490A6802430A600C490A6882
:1021700002430A60002000210D4A03C26A45FCD1D7
:10218000084FB847084FB847084FB847FEE7000068
:102190000000001008ED00E00013204080132040F4
:1021A000A01320402D180010AD2300107D24001036
:1021B00000FF0128FFFF0128443A5C4C515F507238
:1021C0006F6A6563745C435954345C4C515F435986
:1021D000543442425F4C49425F32332D31312D320B
:1021E000305C747669696268346D5C7372635C73C9
:1021F000797374656D5C7265765F625C7379737414
:10220000656D5F747669696268346D5F636D3070A7
:102210006C75732E63000000443A5C4C515F507241
:102220006F6A6563745C435954345C4C515F435925
:10223000543442425F4C49425F32332D31312D32AA
:10224000305C747669696268346D5C7372635C6477
:102250007269766572735C737973636C6B5C6379B6
:102260005F737973636C6B2E68000000443A5C4CBA
:10227000515F50726F6A6563745C435954345C4CAF
:10228000515F4359543442425F4C49425F32332DCF
:1022900031312D32305C747669696268346D5C73FB
:1022A00072635C647269766572735C737973636C74
:1022B0006B5C63795F737973636C6B2E63000000F2
:1022C000443A5C4C515F50726F6A6563745C435969
:1022D00054345C4C515F4359543442425F4C494240
:1022E0005F32332D31312D32305C636F6D6D6F6E27
:1022F0005C7372635C647269766572735C73797324
:102300007469636B5C63795F7379737469636B2E53
:102310006300000070B40123002413E00168001D75
:10232000194202D04D466918491E0C60091D121F42
:10233000042AFAD20D00960701D50C80AD1C1A4074
:1023400000D02C700268001D002AE7D170BC7047D5
:102350000000000006000000000000000000000077
:10236000000000000000000000000000000000006D
:10237000000000000000000000000000000000005D
:102380000000000080B562B6FEF718FC0549002089
:10239000FEF7A4FE04490120FEF7A0FEFFF76DFD45
:1023A000FEE700BF000008100000281010B5074924
:1023B00079441831064C7C44163404E0081D0A6840
:1023C000891888470100A142F8D110BD080000001B
:1023D0002400000041FFFFFFC0000000700F002834
:1023E00000000000E9FCFFFF3A01000004010000CA
:1023F0000008002804207146084202D0EFF309804B
:1024000001E0EFF3088000B50149884700BD0000F6
:102410007B09001000F00EF8002801D0FFF7C6FF7E
:1024200000BF00BF002000BF00BFFFF7ABFF00F000
:1024300003F800000020704780B500F001F801BDEE
:102440000746384600F002F8FBE7000080B500BF01
:1024500000BF024A11001820ABBEFBE726000200B5
:1024600004207146084201D0EFF30980EFF30880A1
:1024700000B50149884700BDC12400100548014648
:1024800003B4684680F3098800BF00BF00BF00BFE7
:10249000FFF7C0FFA5EDF5FE00127A000000000076
:1024A0000024F40000800000008000000080000094
:1024B00000030001000401040204000200040005FE
:1024C0008169891E0978C9B2016070470008002837
:1024D000FFFF0128000000000000000000000000D5
:1024E00000000000000000000000000000000000EC
:1024F0000000000000000000FEE70000FEE7000012
:10250000FEE70000FEE70000FEE70000FEE7000037
:10251000FEE70000FEE70000FEE70000FEE7000027
:10252000FEE7F002FFC91B001004F1FF04F1FF04F5
:10253000F1FF04F1FF04F1FF04F177041003000040
:102540003140800413000108110413000208110433
:1025500013000308110413000408110413000508F4
:1025600011041300060811041300070811041300D6
:102570000808110413000908110413000A081104C3
:1025800013000B08110413000C08110413000D08AC
:10259000110413000E08110413000F0811040002A7
:1025A00000103140000000000000000000000000AA
:1025B000000000000000000000000000000000001B
:1025C000000000000000000000000000000000000B
:1025D00000000000000000000000000000000000FB
:1025E00000000000000000000000000000000000EB
:1025F00000000000000000000000000000000000DB
:1026000000000000000000000000000000000000CA
:1026100000000000000000000000000000000000BA
:1026200000000000000000000000000000000000AA
:10263000000000000000000000000000000000009A
:10264000000000000000000000000000000000008A
:10265000000000000000000000000000000000007A
:10266000000000000000000000000000000000006A
:10267000000000000000000000000000000000005A
:10268000000000000000000000000000000000004A
:0926900000000000000000000041
:040000051000247D46
:00000001FF
